{
  "contractName": "Supplychain",
  "abi": [
    {
      "constant": false,
      "inputs": [
        {
          "name": "account",
          "type": "address"
        }
      ],
      "name": "addConsumer",
      "outputs": [],
      "payable": false,
      "stateMutability": "nonpayable",
      "type": "function",
      "signature": "0x112940f9"
    },
    {
      "constant": true,
      "inputs": [],
      "name": "sku",
      "outputs": [
        {
          "name": "",
          "type": "uint256"
        }
      ],
      "payable": false,
      "stateMutability": "view",
      "type": "function",
      "signature": "0x4462f40c"
    },
    {
      "constant": true,
      "inputs": [
        {
          "name": "account",
          "type": "address"
        }
      ],
      "name": "isRetailer",
      "outputs": [
        {
          "name": "",
          "type": "bool"
        }
      ],
      "payable": false,
      "stateMutability": "view",
      "type": "function",
      "signature": "0x5da09b88"
    },
    {
      "constant": false,
      "inputs": [],
      "name": "renounceDistributor",
      "outputs": [],
      "payable": false,
      "stateMutability": "nonpayable",
      "type": "function",
      "signature": "0x644241db"
    },
    {
      "constant": false,
      "inputs": [],
      "name": "renounceOwnership",
      "outputs": [],
      "payable": false,
      "stateMutability": "nonpayable",
      "type": "function",
      "signature": "0x715018a6"
    },
    {
      "constant": false,
      "inputs": [
        {
          "name": "account",
          "type": "address"
        }
      ],
      "name": "addDistributor",
      "outputs": [],
      "payable": false,
      "stateMutability": "nonpayable",
      "type": "function",
      "signature": "0x7250e224"
    },
    {
      "constant": false,
      "inputs": [
        {
          "name": "account",
          "type": "address"
        }
      ],
      "name": "addFarmer",
      "outputs": [],
      "payable": false,
      "stateMutability": "nonpayable",
      "type": "function",
      "signature": "0x80c3f96d"
    },
    {
      "constant": false,
      "inputs": [],
      "name": "renounceFarmer",
      "outputs": [],
      "payable": false,
      "stateMutability": "nonpayable",
      "type": "function",
      "signature": "0x80fc0ce4"
    },
    {
      "constant": true,
      "inputs": [
        {
          "name": "account",
          "type": "address"
        }
      ],
      "name": "isConsumer",
      "outputs": [
        {
          "name": "",
          "type": "bool"
        }
      ],
      "payable": false,
      "stateMutability": "view",
      "type": "function",
      "signature": "0x834ff739"
    },
    {
      "constant": false,
      "inputs": [
        {
          "name": "account",
          "type": "address"
        }
      ],
      "name": "addRetailer",
      "outputs": [],
      "payable": false,
      "stateMutability": "nonpayable",
      "type": "function",
      "signature": "0x8ec4f505"
    },
    {
      "constant": true,
      "inputs": [
        {
          "name": "account",
          "type": "address"
        }
      ],
      "name": "isDistributor",
      "outputs": [
        {
          "name": "",
          "type": "bool"
        }
      ],
      "payable": false,
      "stateMutability": "view",
      "type": "function",
      "signature": "0x8f0c86fa"
    },
    {
      "constant": true,
      "inputs": [],
      "name": "isOwner",
      "outputs": [
        {
          "name": "",
          "type": "bool"
        }
      ],
      "payable": false,
      "stateMutability": "view",
      "type": "function",
      "signature": "0x8f32d59b"
    },
    {
      "constant": true,
      "inputs": [],
      "name": "upc",
      "outputs": [
        {
          "name": "",
          "type": "uint256"
        }
      ],
      "payable": false,
      "stateMutability": "view",
      "type": "function",
      "signature": "0xac2db09d"
    },
    {
      "constant": true,
      "inputs": [
        {
          "name": "account",
          "type": "address"
        }
      ],
      "name": "isFarmer",
      "outputs": [
        {
          "name": "",
          "type": "bool"
        }
      ],
      "payable": false,
      "stateMutability": "view",
      "type": "function",
      "signature": "0xb9429069"
    },
    {
      "constant": false,
      "inputs": [],
      "name": "renounceRetailer",
      "outputs": [],
      "payable": false,
      "stateMutability": "nonpayable",
      "type": "function",
      "signature": "0xdb0e6a2f"
    },
    {
      "constant": true,
      "inputs": [],
      "name": "ownerLookup",
      "outputs": [
        {
          "name": "",
          "type": "address"
        }
      ],
      "payable": false,
      "stateMutability": "view",
      "type": "function",
      "signature": "0xe02e64ea"
    },
    {
      "constant": false,
      "inputs": [
        {
          "name": "newOwner",
          "type": "address"
        }
      ],
      "name": "transferOwnership",
      "outputs": [],
      "payable": false,
      "stateMutability": "nonpayable",
      "type": "function",
      "signature": "0xf2fde38b"
    },
    {
      "constant": false,
      "inputs": [
        {
          "name": "account",
          "type": "address"
        }
      ],
      "name": "renounceConsumer",
      "outputs": [],
      "payable": false,
      "stateMutability": "nonpayable",
      "type": "function",
      "signature": "0xf487d48d"
    },
    {
      "inputs": [],
      "payable": true,
      "stateMutability": "payable",
      "type": "constructor",
      "signature": "constructor"
    },
    {
      "anonymous": false,
      "inputs": [
        {
          "indexed": false,
          "name": "upc",
          "type": "uint256"
        }
      ],
      "name": "ProduceByFarmer",
      "type": "event",
      "signature": "0xe8a027a2bb83abbf6ec926b84d4aeb91585c16b58b27b8d0f0fb451566a55211"
    },
    {
      "anonymous": false,
      "inputs": [
        {
          "indexed": false,
          "name": "upc",
          "type": "uint256"
        }
      ],
      "name": "ForSaleByFarmer",
      "type": "event",
      "signature": "0x7a02b5a0b1f928cffcafd0e750f369a40f124f4f34f65801fe1f0d945b9a7915"
    },
    {
      "anonymous": false,
      "inputs": [
        {
          "indexed": false,
          "name": "upc",
          "type": "uint256"
        }
      ],
      "name": "PurchasedByDistributor",
      "type": "event",
      "signature": "0xacd9402b9f9e8c15fa7c1819f8393ca56eb61316cc354fc6ac2150aed3ce7931"
    },
    {
      "anonymous": false,
      "inputs": [
        {
          "indexed": false,
          "name": "upc",
          "type": "uint256"
        }
      ],
      "name": "ShippedByFarmer",
      "type": "event",
      "signature": "0xe6ae062d51064ae2a5a31a72fcb1bee1d343fdc6bddc1d3dfce658ece4f03212"
    },
    {
      "anonymous": false,
      "inputs": [
        {
          "indexed": false,
          "name": "upc",
          "type": "uint256"
        }
      ],
      "name": "ReceivedByDistributor",
      "type": "event",
      "signature": "0xc8ca2150e6e1849a10ef5aa4932060fa353bcacdffeb150c9e1890c6ab9403cc"
    },
    {
      "anonymous": false,
      "inputs": [
        {
          "indexed": false,
          "name": "upc",
          "type": "uint256"
        }
      ],
      "name": "ProcessedByDistributor",
      "type": "event",
      "signature": "0x5725e53fd0efed5294b7db2af148f040264a63630b4deb0afbccf6e60830988a"
    },
    {
      "anonymous": false,
      "inputs": [
        {
          "indexed": false,
          "name": "upc",
          "type": "uint256"
        }
      ],
      "name": "PackagedByDistributor",
      "type": "event",
      "signature": "0xe66bb55f536a4cc96647dde6ff37b712c07348eaa88366931f491d93c0fcd981"
    },
    {
      "anonymous": false,
      "inputs": [
        {
          "indexed": false,
          "name": "upc",
          "type": "uint256"
        }
      ],
      "name": "ForSaleByDistributor",
      "type": "event",
      "signature": "0x539b4a835a8a5d1bc5756a9f146e2bfeaa6bd6b1fa77a7631c0a5154c86cdd03"
    },
    {
      "anonymous": false,
      "inputs": [
        {
          "indexed": false,
          "name": "upc",
          "type": "uint256"
        }
      ],
      "name": "PurchasedByRetailer",
      "type": "event",
      "signature": "0xaa7352d10146444c3afd9bd7fb0ae56b0a85e81139536bbec3f1f660fddd7be1"
    },
    {
      "anonymous": false,
      "inputs": [
        {
          "indexed": false,
          "name": "upc",
          "type": "uint256"
        }
      ],
      "name": "ShippedByDistributor",
      "type": "event",
      "signature": "0xc5c33776d405e5686e4386e1ef31a65cf6195e4f7ceb8808ab64d05b6ccbc2a6"
    },
    {
      "anonymous": false,
      "inputs": [
        {
          "indexed": false,
          "name": "upc",
          "type": "uint256"
        }
      ],
      "name": "ReceivedByRetailer",
      "type": "event",
      "signature": "0x322f34e90f2269750b3e28178631d975cc678db36f21098fe548b7f755ce0bd0"
    },
    {
      "anonymous": false,
      "inputs": [
        {
          "indexed": false,
          "name": "upc",
          "type": "uint256"
        }
      ],
      "name": "ForSaleByRetailer",
      "type": "event",
      "signature": "0x59e7ad085805e2b02ad4b0f8033bd75e7ee4c8cd43f996267463585e35896252"
    },
    {
      "anonymous": false,
      "inputs": [
        {
          "indexed": false,
          "name": "upc",
          "type": "uint256"
        }
      ],
      "name": "PurchasedByConsumer",
      "type": "event",
      "signature": "0xc7e94446a942a0541d0224ece380a730c85f03db7188fca783225da9255929f7"
    },
    {
      "anonymous": false,
      "inputs": [
        {
          "indexed": true,
          "name": "account",
          "type": "address"
        }
      ],
      "name": "ConsumerAdded",
      "type": "event",
      "signature": "0x28b26e7a3d20aedbc5f8f2ebf7da671c0491723a2b78f47a097b0e46dee07142"
    },
    {
      "anonymous": false,
      "inputs": [
        {
          "indexed": true,
          "name": "account",
          "type": "address"
        }
      ],
      "name": "ConsumerRemoved",
      "type": "event",
      "signature": "0xe3f5ed5f263f1f01764a96edfc7d025f511ec5f7d180e8816908b78bcf74f098"
    },
    {
      "anonymous": false,
      "inputs": [
        {
          "indexed": true,
          "name": "account",
          "type": "address"
        }
      ],
      "name": "RetailerAdded",
      "type": "event",
      "signature": "0x71ae26cad02663e3d92efd6ec56031a80d74a20c0ab4183faa8bf262261c9baa"
    },
    {
      "anonymous": false,
      "inputs": [
        {
          "indexed": true,
          "name": "account",
          "type": "address"
        }
      ],
      "name": "RetailerRemoved",
      "type": "event",
      "signature": "0xdb7176e79cffef81cb01767dd0447a0b24bb72ca9778d4b245581086b2a7e6db"
    },
    {
      "anonymous": false,
      "inputs": [
        {
          "indexed": true,
          "name": "account",
          "type": "address"
        }
      ],
      "name": "DistributorAdded",
      "type": "event",
      "signature": "0xddbf200aa634dc3fb81cfd68583dd1040d1c751d335e1d86b631bde3e977fea8"
    },
    {
      "anonymous": false,
      "inputs": [
        {
          "indexed": true,
          "name": "account",
          "type": "address"
        }
      ],
      "name": "DistributorRemoved",
      "type": "event",
      "signature": "0x126174f6cf49c81cdb4a9214c6b8f037bef55b4ec31e4fc776cea2a1c8a88d59"
    },
    {
      "anonymous": false,
      "inputs": [
        {
          "indexed": true,
          "name": "account",
          "type": "address"
        }
      ],
      "name": "FarmerAdded",
      "type": "event",
      "signature": "0x2e0ded4123377a3c2bc9a26f1717655a129e2f20752924d42e730ec89c83dbd0"
    },
    {
      "anonymous": false,
      "inputs": [
        {
          "indexed": true,
          "name": "account",
          "type": "address"
        }
      ],
      "name": "FarmerRemoved",
      "type": "event",
      "signature": "0xa5e0f060af304ab17dd418c7927e3da3ae7868189bf387aee09ab179ccc572f2"
    },
    {
      "anonymous": false,
      "inputs": [
        {
          "indexed": true,
          "name": "oldOwner",
          "type": "address"
        },
        {
          "indexed": true,
          "name": "newOwner",
          "type": "address"
        }
      ],
      "name": "TransferOwnership",
      "type": "event",
      "signature": "0x5c486528ec3e3f0ea91181cff8116f02bfa350e03b8b6f12e00765adbb5af85c"
    },
    {
      "constant": false,
      "inputs": [],
      "name": "kill",
      "outputs": [],
      "payable": false,
      "stateMutability": "nonpayable",
      "type": "function",
      "signature": "0x41c0e1b5"
    },
    {
      "constant": false,
      "inputs": [
        {
          "name": "_upc",
          "type": "uint256"
        },
        {
          "name": "_price",
          "type": "uint256"
        },
        {
          "name": "_productNotes",
          "type": "string"
        },
        {
          "name": "_originFarmName",
          "type": "string"
        },
        {
          "name": "_originFarmInformation",
          "type": "string"
        },
        {
          "name": "_originFarmLatitude",
          "type": "string"
        },
        {
          "name": "_originFarmLongitude",
          "type": "string"
        }
      ],
      "name": "createProductByFarmer",
      "outputs": [],
      "payable": false,
      "stateMutability": "nonpayable",
      "type": "function",
      "signature": "0x4e3eac03"
    },
    {
      "constant": false,
      "inputs": [
        {
          "name": "_upc",
          "type": "uint256"
        },
        {
          "name": "_price",
          "type": "uint256"
        }
      ],
      "name": "sellProductByFarmer",
      "outputs": [],
      "payable": false,
      "stateMutability": "nonpayable",
      "type": "function",
      "signature": "0x5506dc52"
    },
    {
      "constant": false,
      "inputs": [
        {
          "name": "_upc",
          "type": "uint256"
        }
      ],
      "name": "purchaseProductByDistributor",
      "outputs": [],
      "payable": true,
      "stateMutability": "payable",
      "type": "function",
      "signature": "0x0d986b66"
    },
    {
      "constant": false,
      "inputs": [
        {
          "name": "_upc",
          "type": "uint256"
        }
      ],
      "name": "shipProductByFarmer",
      "outputs": [],
      "payable": true,
      "stateMutability": "payable",
      "type": "function",
      "signature": "0x949bc219"
    },
    {
      "constant": false,
      "inputs": [
        {
          "name": "_upc",
          "type": "uint256"
        }
      ],
      "name": "receiveProductByDistributor",
      "outputs": [],
      "payable": false,
      "stateMutability": "nonpayable",
      "type": "function",
      "signature": "0x5fc25e7f"
    },
    {
      "constant": false,
      "inputs": [
        {
          "name": "_upc",
          "type": "uint256"
        },
        {
          "name": "slices",
          "type": "uint256"
        }
      ],
      "name": "processProductByDistributor",
      "outputs": [],
      "payable": false,
      "stateMutability": "nonpayable",
      "type": "function",
      "signature": "0xb440a339"
    },
    {
      "constant": false,
      "inputs": [
        {
          "name": "_upc",
          "type": "uint256"
        }
      ],
      "name": "packageProductByDistributor",
      "outputs": [],
      "payable": false,
      "stateMutability": "nonpayable",
      "type": "function",
      "signature": "0xcf1b9f1a"
    },
    {
      "constant": false,
      "inputs": [
        {
          "name": "_upc",
          "type": "uint256"
        },
        {
          "name": "_price",
          "type": "uint256"
        }
      ],
      "name": "sellProductByDistributor",
      "outputs": [],
      "payable": false,
      "stateMutability": "nonpayable",
      "type": "function",
      "signature": "0x528356ed"
    },
    {
      "constant": false,
      "inputs": [
        {
          "name": "_upc",
          "type": "uint256"
        }
      ],
      "name": "purchaseProductByRetailer",
      "outputs": [],
      "payable": true,
      "stateMutability": "payable",
      "type": "function",
      "signature": "0xcf6482b8"
    },
    {
      "constant": false,
      "inputs": [
        {
          "name": "_upc",
          "type": "uint256"
        }
      ],
      "name": "shipProductByDistributor",
      "outputs": [],
      "payable": false,
      "stateMutability": "nonpayable",
      "type": "function",
      "signature": "0xafe522b4"
    },
    {
      "constant": false,
      "inputs": [
        {
          "name": "_upc",
          "type": "uint256"
        }
      ],
      "name": "receiveProductByRetailer",
      "outputs": [],
      "payable": false,
      "stateMutability": "nonpayable",
      "type": "function",
      "signature": "0x819be25c"
    },
    {
      "constant": false,
      "inputs": [
        {
          "name": "_upc",
          "type": "uint256"
        },
        {
          "name": "_price",
          "type": "uint256"
        }
      ],
      "name": "sellProductByRetailer",
      "outputs": [],
      "payable": false,
      "stateMutability": "nonpayable",
      "type": "function",
      "signature": "0xcc7b439f"
    },
    {
      "constant": false,
      "inputs": [
        {
          "name": "_upc",
          "type": "uint256"
        }
      ],
      "name": "purchaseProductByConsumer",
      "outputs": [],
      "payable": true,
      "stateMutability": "payable",
      "type": "function",
      "signature": "0x4d61d5fb"
    },
    {
      "constant": true,
      "inputs": [
        {
          "name": "_upc",
          "type": "uint256"
        }
      ],
      "name": "getItemBufferOne",
      "outputs": [
        {
          "name": "itemSKU",
          "type": "uint256"
        },
        {
          "name": "itemUPC",
          "type": "uint256"
        },
        {
          "name": "ownerID",
          "type": "address"
        },
        {
          "name": "farmerID",
          "type": "address"
        },
        {
          "name": "farmId",
          "type": "bytes32"
        },
        {
          "name": "farmName",
          "type": "string"
        },
        {
          "name": "farmInformation",
          "type": "string"
        },
        {
          "name": "farmLatitude",
          "type": "string"
        },
        {
          "name": "farmLongitude",
          "type": "string"
        },
        {
          "name": "productDate",
          "type": "uint256"
        },
        {
          "name": "productSliced",
          "type": "uint256"
        }
      ],
      "payable": false,
      "stateMutability": "view",
      "type": "function",
      "signature": "0x27d46735"
    },
    {
      "constant": true,
      "inputs": [
        {
          "name": "_upc",
          "type": "uint256"
        }
      ],
      "name": "getItemBufferTwo",
      "outputs": [
        {
          "name": "itemSKU",
          "type": "uint256"
        },
        {
          "name": "itemUPC",
          "type": "uint256"
        },
        {
          "name": "productId",
          "type": "bytes32"
        },
        {
          "name": "productNotes",
          "type": "string"
        },
        {
          "name": "productPrice",
          "type": "uint256"
        },
        {
          "name": "productDate",
          "type": "uint256"
        },
        {
          "name": "itemState",
          "type": "uint8"
        },
        {
          "name": "distributorID",
          "type": "address"
        },
        {
          "name": "retailerID",
          "type": "address"
        },
        {
          "name": "consumerID",
          "type": "address"
        }
      ],
      "payable": false,
      "stateMutability": "view",
      "type": "function",
      "signature": "0x158ff481"
    },
    {
      "constant": true,
      "inputs": [
        {
          "name": "_upc",
          "type": "uint256"
        }
      ],
      "name": "fetchProductHistory",
      "outputs": [
        {
          "name": "blockFarmerToDistributor",
          "type": "uint256"
        },
        {
          "name": "blockDistributorToRetailer",
          "type": "uint256"
        },
        {
          "name": "blockRetailerToConsumer",
          "type": "uint256"
        }
      ],
      "payable": false,
      "stateMutability": "view",
      "type": "function",
      "signature": "0x6b156a78"
    }
  ],
  "bytecode": "0x60806040526000600755336000806101000a81548173ffffffffffffffffffffffffffffffffffffffff021916908373ffffffffffffffffffffffffffffffffffffffff1602179055506000809054906101000a900473ffffffffffffffffffffffffffffffffffffffff1673ffffffffffffffffffffffffffffffffffffffff16600073ffffffffffffffffffffffffffffffffffffffff167f5c486528ec3e3f0ea91181cff8116f02bfa350e03b8b6f12e00765adbb5af85c60405160405180910390a3620000df3362000184640100000000026401000000009004565b620000f933620001ee640100000000026401000000009004565b620001133362000258640100000000026401000000009004565b6200012d33620002c2640100000000026401000000009004565b33600560006101000a81548173ffffffffffffffffffffffffffffffffffffffff021916908373ffffffffffffffffffffffffffffffffffffffff16021790555060016007819055506001600681905550620005bf565b620001a88160016200032c640100000000026200423f179091906401000000009004565b8073ffffffffffffffffffffffffffffffffffffffff167f2e0ded4123377a3c2bc9a26f1717655a129e2f20752924d42e730ec89c83dbd060405160405180910390a250565b620002128160026200032c640100000000026200423f179091906401000000009004565b8073ffffffffffffffffffffffffffffffffffffffff167fddbf200aa634dc3fb81cfd68583dd1040d1c751d335e1d86b631bde3e977fea860405160405180910390a250565b6200027c8160036200032c640100000000026200423f179091906401000000009004565b8073ffffffffffffffffffffffffffffffffffffffff167f71ae26cad02663e3d92efd6ec56031a80d74a20c0ab4183faa8bf262261c9baa60405160405180910390a250565b620002e68160046200032c640100000000026200423f179091906401000000009004565b8073ffffffffffffffffffffffffffffffffffffffff167f28b26e7a3d20aedbc5f8f2ebf7da671c0491723a2b78f47a097b0e46dee0714260405160405180910390a250565b600073ffffffffffffffffffffffffffffffffffffffff168173ffffffffffffffffffffffffffffffffffffffff1614151515620003d2576040517f08c379a000000000000000000000000000000000000000000000000000000000815260040180806020018281038252600e8152602001807f766572696679206163636f756e7400000000000000000000000000000000000081525060200191505060405180910390fd5b620003ed8282620004c1640100000000026401000000009004565b15151562000463576040517f08c379a000000000000000000000000000000000000000000000000000000000815260040180806020018281038252601b8152602001807f766572696679206163636f756e74206861732074686520726f6c65000000000081525060200191505060405180910390fd5b60018260000160008373ffffffffffffffffffffffffffffffffffffffff1673ffffffffffffffffffffffffffffffffffffffff16815260200190815260200160002060006101000a81548160ff0219169083151502179055505050565b60008073ffffffffffffffffffffffffffffffffffffffff168273ffffffffffffffffffffffffffffffffffffffff161415151562000568576040517f08c379a00000000000000000000000000000000000000000000000000000000081526004018080602001828103825260178152602001807f4163636f756e74206973206e6f7420766572696669656400000000000000000081525060200191505060405180910390fd5b8260000160008373ffffffffffffffffffffffffffffffffffffffff1673ffffffffffffffffffffffffffffffffffffffff16815260200190815260200160002060009054906101000a900460ff16905092915050565b61474080620005cf6000396000f3fe6080604052600436106101b7576000357c0100000000000000000000000000000000000000000000000000000000900463ffffffff1680630d986b66146101bc578063112940f9146101ea578063158ff4811461023b57806327d46735146103c057806341c0e1b5146106415780634462f40c146106585780634d61d5fb146106835780634e3eac03146106b1578063528356ed146109e95780635506dc5214610a2e5780635da09b8814610a735780635fc25e7f14610adc578063644241db14610b175780636b156a7814610b2e578063715018a614610b8b5780637250e22414610ba257806380c3f96d14610bf357806380fc0ce414610c44578063819be25c14610c5b578063834ff73914610c965780638ec4f50514610cff5780638f0c86fa14610d505780638f32d59b14610db9578063949bc21914610de8578063ac2db09d14610e16578063afe522b414610e41578063b440a33914610e7c578063b942906914610ec1578063cc7b439f14610f2a578063cf1b9f1a14610f6f578063cf6482b814610faa578063db0e6a2f14610fd8578063e02e64ea14610fef578063f2fde38b14611046578063f487d48d14611097575b600080fd5b6101e8600480360360208110156101d257600080fd5b81019080803590602001909291905050506110e8565b005b3480156101f657600080fd5b506102396004803603602081101561020d57600080fd5b81019080803573ffffffffffffffffffffffffffffffffffffffff1690602001909291905050506113b4565b005b34801561024757600080fd5b506102746004803603602081101561025e57600080fd5b81019080803590602001909291905050506113d4565b604051808b81526020018a81526020018981526020018060200188815260200187815260200186600c8111156102a657fe5b60ff1681526020018573ffffffffffffffffffffffffffffffffffffffff1673ffffffffffffffffffffffffffffffffffffffff1681526020018473ffffffffffffffffffffffffffffffffffffffff1673ffffffffffffffffffffffffffffffffffffffff1681526020018373ffffffffffffffffffffffffffffffffffffffff1673ffffffffffffffffffffffffffffffffffffffff168152602001828103825289818151815260200191508051906020019080838360005b8381101561037c578082015181840152602081019050610361565b50505050905090810190601f1680156103a95780820380516001836020036101000a031916815260200191505b509b50505050505050505050505060405180910390f35b3480156103cc57600080fd5b506103f9600480360360208110156103e357600080fd5b81019080803590602001909291905050506119b8565b604051808c81526020018b81526020018a73ffffffffffffffffffffffffffffffffffffffff1673ffffffffffffffffffffffffffffffffffffffff1681526020018973ffffffffffffffffffffffffffffffffffffffff1673ffffffffffffffffffffffffffffffffffffffff1681526020018881526020018060200180602001806020018060200187815260200186815260200185810385528b818151815260200191508051906020019080838360005b838110156104c75780820151818401526020810190506104ac565b50505050905090810190601f1680156104f45780820380516001836020036101000a031916815260200191505b5085810384528a818151815260200191508051906020019080838360005b8381101561052d578082015181840152602081019050610512565b50505050905090810190601f16801561055a5780820380516001836020036101000a031916815260200191505b50858103835289818151815260200191508051906020019080838360005b83811015610593578082015181840152602081019050610578565b50505050905090810190601f1680156105c05780820380516001836020036101000a031916815260200191505b50858103825288818151815260200191508051906020019080838360005b838110156105f95780820151818401526020810190506105de565b50505050905090810190601f1680156106265780820380516001836020036101000a031916815260200191505b509f5050505050505050505050505050505060405180910390f35b34801561064d57600080fd5b50610656611fa5565b005b34801561066457600080fd5b5061066d612045565b6040518082815260200191505060405180910390f35b6106af6004803603602081101561069957600080fd5b810190808035906020019092919050505061204b565b005b3480156106bd57600080fd5b506109e7600480360360e08110156106d457600080fd5b8101908080359060200190929190803590602001909291908035906020019064010000000081111561070557600080fd5b82018360208201111561071757600080fd5b8035906020019184600183028401116401000000008311171561073957600080fd5b91908080601f016020809104026020016040519081016040528093929190818152602001838380828437600081840152601f19601f8201169050808301925050505050505091929192908035906020019064010000000081111561079c57600080fd5b8201836020820111156107ae57600080fd5b803590602001918460018302840111640100000000831117156107d057600080fd5b91908080601f016020809104026020016040519081016040528093929190818152602001838380828437600081840152601f19601f8201169050808301925050505050505091929192908035906020019064010000000081111561083357600080fd5b82018360208201111561084557600080fd5b8035906020019184600183028401116401000000008311171561086757600080fd5b91908080601f016020809104026020016040519081016040528093929190818152602001838380828437600081840152601f19601f820116905080830192505050505050509192919290803590602001906401000000008111156108ca57600080fd5b8201836020820111156108dc57600080fd5b803590602001918460018302840111640100000000831117156108fe57600080fd5b91908080601f016020809104026020016040519081016040528093929190818152602001838380828437600081840152601f19601f8201169050808301925050505050505091929192908035906020019064010000000081111561096157600080fd5b82018360208201111561097357600080fd5b8035906020019184600183028401116401000000008311171561099557600080fd5b91908080601f016020809104026020016040519081016040528093929190818152602001838380828437600081840152601f19601f82011690508083019250505050505050919291929050505061236c565b005b3480156109f557600080fd5b50610a2c60048036036040811015610a0c57600080fd5b8101908080359060200190929190803590602001909291905050506129c8565b005b348015610a3a57600080fd5b50610a7160048036036040811015610a5157600080fd5b810190808035906020019092919080359060200190929190505050612b28565b005b348015610a7f57600080fd5b50610ac260048036036020811015610a9657600080fd5b81019080803573ffffffffffffffffffffffffffffffffffffffff169060200190929190505050612cef565b604051808215151515815260200191505060405180910390f35b348015610ae857600080fd5b50610b1560048036036020811015610aff57600080fd5b8101908080359060200190929190505050612d0c565b005b348015610b2357600080fd5b50610b2c612e4e565b005b348015610b3a57600080fd5b50610b6760048036036020811015610b5157600080fd5b8101908080359060200190929190505050612e59565b60405180848152602001838152602001828152602001935050505060405180910390f35b348015610b9757600080fd5b50610ba0612ec2565b005b348015610bae57600080fd5b50610bf160048036036020811015610bc557600080fd5b81019080803573ffffffffffffffffffffffffffffffffffffffff169060200190929190505050612fdd565b005b348015610bff57600080fd5b50610c4260048036036020811015610c1657600080fd5b81019080803573ffffffffffffffffffffffffffffffffffffffff169060200190929190505050612ffd565b005b348015610c5057600080fd5b50610c59613086565b005b348015610c6757600080fd5b50610c9460048036036020811015610c7e57600080fd5b8101908080359060200190929190505050613091565b005b348015610ca257600080fd5b50610ce560048036036020811015610cb957600080fd5b81019080803573ffffffffffffffffffffffffffffffffffffffff1690602001909291905050506131d3565b604051808215151515815260200191505060405180910390f35b348015610d0b57600080fd5b50610d4e60048036036020811015610d2257600080fd5b81019080803573ffffffffffffffffffffffffffffffffffffffff1690602001909291905050506131f0565b005b348015610d5c57600080fd5b50610d9f60048036036020811015610d7357600080fd5b81019080803573ffffffffffffffffffffffffffffffffffffffff169060200190929190505050613210565b604051808215151515815260200191505060405180910390f35b348015610dc557600080fd5b50610dce61322d565b604051808215151515815260200191505060405180910390f35b610e1460048036036020811015610dfe57600080fd5b8101908080359060200190929190505050613284565b005b348015610e2257600080fd5b50610e2b61342f565b6040518082815260200191505060405180910390f35b348015610e4d57600080fd5b50610e7a60048036036020811015610e6457600080fd5b8101908080359060200190929190505050613435565b005b348015610e8857600080fd5b50610ebf60048036036040811015610e9f57600080fd5b810190808035906020019092919080359060200190929190505050613577565b005b348015610ecd57600080fd5b50610f1060048036036020811015610ee457600080fd5b81019080803573ffffffffffffffffffffffffffffffffffffffff1690602001909291905050506136d5565b604051808215151515815260200191505060405180910390f35b348015610f3657600080fd5b50610f6d60048036036040811015610f4d57600080fd5b8101908080359060200190929190803590602001909291905050506136f2565b005b348015610f7b57600080fd5b50610fa860048036036020811015610f9257600080fd5b8101908080359060200190929190505050613850565b005b610fd660048036036020811015610fc057600080fd5b8101908080359060200190929190505050613992565b005b348015610fe457600080fd5b50610fed613c5d565b005b348015610ffb57600080fd5b50611004613c68565b604051808273ffffffffffffffffffffffffffffffffffffffff1673ffffffffffffffffffffffffffffffffffffffff16815260200191505060405180910390f35b34801561105257600080fd5b506110956004803603602081101561106957600080fd5b81019080803573ffffffffffffffffffffffffffffffffffffffff169060200190929190505050613c91565b005b3480156110a357600080fd5b506110e6600480360360208110156110ba57600080fd5b81019080803573ffffffffffffffffffffffffffffffffffffffff169060200190929190505050613cf9565b005b6110f133613210565b15156110fc57600080fd5b806001600c81111561110a57fe5b60086000838152602001908152602001600020600e0160009054906101000a900460ff16600c81111561113957fe5b14151561114557600080fd5b60086000838152602001908152602001600020600c015480341015151561116b57600080fd5b8233600060086000848152602001908152602001600020600c01549050600081340390508273ffffffffffffffffffffffffffffffffffffffff166108fc829081150290604051600060405180830381858888f193505050501580156111d5573d6000803e3d6000fd5b506000611217600860008a815260200190815260200160002060030160009054906101000a900473ffffffffffffffffffffffffffffffffffffffff16613d05565b90508073ffffffffffffffffffffffffffffffffffffffff166108fc600860008b8152602001908152602001600020600c01549081150290604051600060405180830381858888f19350505050158015611275573d6000803e3d6000fd5b5033600860008a815260200190815260200160002060020160006101000a81548173ffffffffffffffffffffffffffffffffffffffff021916908373ffffffffffffffffffffffffffffffffffffffff16021790555033600860008a8152602001908152602001600020600e0160016101000a81548173ffffffffffffffffffffffffffffffffffffffff021916908373ffffffffffffffffffffffffffffffffffffffff1602179055506002600860008a8152602001908152602001600020600e0160006101000a81548160ff0219169083600c81111561135357fe5b021790555043600960008a8152602001908152602001600020600001819055507facd9402b9f9e8c15fa7c1819f8393ca56eb61316cc354fc6ac2150aed3ce7931886040518082815260200191505060405180910390a15050505050505050565b6113bd336131d3565b15156113c857600080fd5b6113d181613d0f565b50565b600080600060606000806000806000806113ec614542565b600860008d8152602001908152602001600020610240604051908101604052908160008201548152602001600182015481526020016002820160009054906101000a900473ffffffffffffffffffffffffffffffffffffffff1673ffffffffffffffffffffffffffffffffffffffff1673ffffffffffffffffffffffffffffffffffffffff1681526020016003820160009054906101000a900473ffffffffffffffffffffffffffffffffffffffff1673ffffffffffffffffffffffffffffffffffffffff1673ffffffffffffffffffffffffffffffffffffffff16815260200160048201548152602001600582018054600181600116156101000203166002900480601f01602080910402602001604051908101604052809291908181526020018280546001816001161561010002031660029004801561156f5780601f106115445761010080835404028352916020019161156f565b820191906000526020600020905b81548152906001019060200180831161155257829003601f168201915b50505050508152602001600682018054600181600116156101000203166002900480601f0160208091040260200160405190810160405280929190818152602001828054600181600116156101000203166002900480156116115780601f106115e657610100808354040283529160200191611611565b820191906000526020600020905b8154815290600101906020018083116115f457829003601f168201915b50505050508152602001600782018054600181600116156101000203166002900480601f0160208091040260200160405190810160405280929190818152602001828054600181600116156101000203166002900480156116b35780601f10611688576101008083540402835291602001916116b3565b820191906000526020600020905b81548152906001019060200180831161169657829003601f168201915b50505050508152602001600882018054600181600116156101000203166002900480601f0160208091040260200160405190810160405280929190818152602001828054600181600116156101000203166002900480156117555780601f1061172a57610100808354040283529160200191611755565b820191906000526020600020905b81548152906001019060200180831161173857829003601f168201915b5050505050815260200160098201548152602001600a82018054600181600116156101000203166002900480601f0160208091040260200160405190810160405280929190818152602001828054600181600116156101000203166002900480156118015780601f106117d657610100808354040283529160200191611801565b820191906000526020600020905b8154815290600101906020018083116117e457829003601f168201915b50505050508152602001600b8201548152602001600c8201548152602001600d8201548152602001600e820160009054906101000a900460ff16600c81111561184657fe5b600c81111561185157fe5b8152602001600e820160019054906101000a900473ffffffffffffffffffffffffffffffffffffffff1673ffffffffffffffffffffffffffffffffffffffff1673ffffffffffffffffffffffffffffffffffffffff168152602001600f820160009054906101000a900473ffffffffffffffffffffffffffffffffffffffff1673ffffffffffffffffffffffffffffffffffffffff1673ffffffffffffffffffffffffffffffffffffffff1681526020016010820160009054906101000a900473ffffffffffffffffffffffffffffffffffffffff1673ffffffffffffffffffffffffffffffffffffffff1673ffffffffffffffffffffffffffffffffffffffff1681525050905080600001518160200151826101200151836101400151846101800151856101600151866101c00151876101e001518861020001518961022001518696509a509a509a509a509a509a509a509a509a509a50509193959799509193959799565b60008060008060006060806060806000806119d1614542565b600860008e8152602001908152602001600020610240604051908101604052908160008201548152602001600182015481526020016002820160009054906101000a900473ffffffffffffffffffffffffffffffffffffffff1673ffffffffffffffffffffffffffffffffffffffff1673ffffffffffffffffffffffffffffffffffffffff1681526020016003820160009054906101000a900473ffffffffffffffffffffffffffffffffffffffff1673ffffffffffffffffffffffffffffffffffffffff1673ffffffffffffffffffffffffffffffffffffffff16815260200160048201548152602001600582018054600181600116156101000203166002900480601f016020809104026020016040519081016040528092919081815260200182805460018160011615610100020316600290048015611b545780601f10611b2957610100808354040283529160200191611b54565b820191906000526020600020905b815481529060010190602001808311611b3757829003601f168201915b50505050508152602001600682018054600181600116156101000203166002900480601f016020809104026020016040519081016040528092919081815260200182805460018160011615610100020316600290048015611bf65780601f10611bcb57610100808354040283529160200191611bf6565b820191906000526020600020905b815481529060010190602001808311611bd957829003601f168201915b50505050508152602001600782018054600181600116156101000203166002900480601f016020809104026020016040519081016040528092919081815260200182805460018160011615610100020316600290048015611c985780601f10611c6d57610100808354040283529160200191611c98565b820191906000526020600020905b815481529060010190602001808311611c7b57829003601f168201915b50505050508152602001600882018054600181600116156101000203166002900480601f016020809104026020016040519081016040528092919081815260200182805460018160011615610100020316600290048015611d3a5780601f10611d0f57610100808354040283529160200191611d3a565b820191906000526020600020905b815481529060010190602001808311611d1d57829003601f168201915b5050505050815260200160098201548152602001600a82018054600181600116156101000203166002900480601f016020809104026020016040519081016040528092919081815260200182805460018160011615610100020316600290048015611de65780601f10611dbb57610100808354040283529160200191611de6565b820191906000526020600020905b815481529060010190602001808311611dc957829003601f168201915b50505050508152602001600b8201548152602001600c8201548152602001600d8201548152602001600e820160009054906101000a900460ff16600c811115611e2b57fe5b600c811115611e3657fe5b8152602001600e820160019054906101000a900473ffffffffffffffffffffffffffffffffffffffff1673ffffffffffffffffffffffffffffffffffffffff1673ffffffffffffffffffffffffffffffffffffffff168152602001600f820160009054906101000a900473ffffffffffffffffffffffffffffffffffffffff1673ffffffffffffffffffffffffffffffffffffffff1673ffffffffffffffffffffffffffffffffffffffff1681526020016010820160009054906101000a900473ffffffffffffffffffffffffffffffffffffffff1673ffffffffffffffffffffffffffffffffffffffff1673ffffffffffffffffffffffffffffffffffffffff16815250509050806000015181602001518260400151836060015184608001518560a001518660c001518760e001518861010001518961016001518b8595508494508393508292509b509b509b509b509b509b509b509b509b509b509b505091939597999b90929496989a50565b600560009054906101000a900473ffffffffffffffffffffffffffffffffffffffff1673ffffffffffffffffffffffffffffffffffffffff163373ffffffffffffffffffffffffffffffffffffffff161415612043576000612028600560009054906101000a900473ffffffffffffffffffffffffffffffffffffffff16613d05565b90508073ffffffffffffffffffffffffffffffffffffffff16ff5b565b60075481565b612054336131d3565b151561205f57600080fd5b80600b600c81111561206d57fe5b60086000838152602001908152602001600020600e0160009054906101000a900460ff16600c81111561209c57fe5b1415156120a857600080fd5b60086000838152602001908152602001600020600c01548034101515156120ce57600080fd5b8233600060086000848152602001908152602001600020600c01549050600081340390508273ffffffffffffffffffffffffffffffffffffffff166108fc829081150290604051600060405180830381858888f19350505050158015612138573d6000803e3d6000fd5b50336008600089815260200190815260200160002060100160006101000a81548173ffffffffffffffffffffffffffffffffffffffff021916908373ffffffffffffffffffffffffffffffffffffffff16021790555060006121cf600860008a8152602001908152602001600020600f0160009054906101000a900473ffffffffffffffffffffffffffffffffffffffff16613d05565b90508073ffffffffffffffffffffffffffffffffffffffff166108fc600860008b8152602001908152602001600020600c01549081150290604051600060405180830381858888f1935050505015801561222d573d6000803e3d6000fd5b5033600860008a815260200190815260200160002060020160006101000a81548173ffffffffffffffffffffffffffffffffffffffff021916908373ffffffffffffffffffffffffffffffffffffffff16021790555033600860008a815260200190815260200160002060100160006101000a81548173ffffffffffffffffffffffffffffffffffffffff021916908373ffffffffffffffffffffffffffffffffffffffff160217905550600c600860008a8152602001908152602001600020600e0160006101000a81548160ff0219169083600c81111561230b57fe5b021790555043600960008a8152602001908152602001600020600201819055507fc7e94446a942a0541d0224ece380a730c85f03db7188fca783225da9255929f7886040518082815260200191505060405180910390a15050505050505050565b612375336136d5565b15156123e9576040517f08c379a00000000000000000000000000000000000000000000000000000000081526004018080602001828103825260168152602001807f43616c6c6572206973206e6f742061206661726d65720000000000000000000081525060200191505060405180910390fd5b60008060006123f6614542565b6007548160000181815250508a81602001818152505033816040019073ffffffffffffffffffffffffffffffffffffffff16908173ffffffffffffffffffffffffffffffffffffffff168152505033816060019073ffffffffffffffffffffffffffffffffffffffff16908173ffffffffffffffffffffffffffffffffffffffff168152505042886040516020018083815260200182805190602001908083835b6020831015156124bc5780518252602082019150602081019050602083039250612497565b6001836020036101000a0380198251168184511680821785525050505050509050019250505060405160208183030381529060405280519060200120816080018181525050878160a00181905250868160c00181905250858160e00181905250848161010001819052504233604051602001808381526020018273ffffffffffffffffffffffffffffffffffffffff1673ffffffffffffffffffffffffffffffffffffffff166c010000000000000000000000000281526014019250505060405160208183030381529060405280519060200120816101200181815250508881610140018190525089816101800181815250506000816101a001818152505042816101600181815250506000816101c00190600c8111156125d957fe5b9081600c8111156125e657fe5b8152505083816101e0019073ffffffffffffffffffffffffffffffffffffffff16908173ffffffffffffffffffffffffffffffffffffffff16815250508281610200019073ffffffffffffffffffffffffffffffffffffffff16908173ffffffffffffffffffffffffffffffffffffffff16815250508181610220019073ffffffffffffffffffffffffffffffffffffffff16908173ffffffffffffffffffffffffffffffffffffffff168152505080600860008d8152602001908152602001600020600082015181600001556020820151816001015560408201518160020160006101000a81548173ffffffffffffffffffffffffffffffffffffffff021916908373ffffffffffffffffffffffffffffffffffffffff16021790555060608201518160030160006101000a81548173ffffffffffffffffffffffffffffffffffffffff021916908373ffffffffffffffffffffffffffffffffffffffff1602179055506080820151816004015560a082015181600501908051906020019061277192919061464d565b5060c082015181600601908051906020019061278e92919061464d565b5060e08201518160070190805190602001906127ab92919061464d565b506101008201518160080190805190602001906127c992919061464d565b50610120820151816009015561014082015181600a0190805190602001906127f292919061464d565b5061016082015181600b015561018082015181600c01556101a082015181600d01556101c082015181600e0160006101000a81548160ff0219169083600c81111561283957fe5b02179055506101e082015181600e0160016101000a81548173ffffffffffffffffffffffffffffffffffffffff021916908373ffffffffffffffffffffffffffffffffffffffff16021790555061020082015181600f0160006101000a81548173ffffffffffffffffffffffffffffffffffffffff021916908373ffffffffffffffffffffffffffffffffffffffff1602179055506102208201518160100160006101000a81548173ffffffffffffffffffffffffffffffffffffffff021916908373ffffffffffffffffffffffffffffffffffffffff16021790555090505060006129236146cd565b81816000018181525050818160200181815250508181604001818152505080600960008f81526020019081526020016000206000820151816000015560208201518160010155604082015181600201559050506001600754016007819055507fe8a027a2bb83abbf6ec926b84d4aeb91585c16b58b27b8d0f0fb451566a552118d6040518082815260200191505060405180910390a150505050505050505050505050565b6129d133613210565b15156129dc57600080fd5b816006600c8111156129ea57fe5b60086000838152602001908152602001600020600e0160009054906101000a900460ff16600c811115612a1957fe5b141515612a2557600080fd5b6008600084815260200190815260200160002060020160009054906101000a900473ffffffffffffffffffffffffffffffffffffffff168073ffffffffffffffffffffffffffffffffffffffff163373ffffffffffffffffffffffffffffffffffffffff16141515612a9657600080fd5b600760086000868152602001908152602001600020600e0160006101000a81548160ff0219169083600c811115612ac957fe5b02179055508260086000868152602001908152602001600020600c01819055507f539b4a835a8a5d1bc5756a9f146e2bfeaa6bd6b1fa77a7631c0a5154c86cdd036006546040518082815260200191505060405180910390a150505050565b612b31336136d5565b1515612ba5576040517f08c379a00000000000000000000000000000000000000000000000000000000081526004018080602001828103825260168152602001807f43616c6c6572206973206e6f742061206661726d65720000000000000000000081525060200191505060405180910390fd5b816000600c811115612bb357fe5b60086000838152602001908152602001600020600e0160009054906101000a900460ff16600c811115612be257fe5b141515612bee57600080fd5b6008600084815260200190815260200160002060020160009054906101000a900473ffffffffffffffffffffffffffffffffffffffff168073ffffffffffffffffffffffffffffffffffffffff163373ffffffffffffffffffffffffffffffffffffffff16141515612c5f57600080fd5b600160086000868152602001908152602001600020600e0160006101000a81548160ff0219169083600c811115612c9257fe5b02179055508260086000868152602001908152602001600020600c01819055507f7a02b5a0b1f928cffcafd0e750f369a40f124f4f34f65801fe1f0d945b9a7915846040518082815260200191505060405180910390a150505050565b6000612d05826003613d6990919063ffffffff16565b9050919050565b612d1533613210565b1515612d2057600080fd5b806003600c811115612d2e57fe5b60086000838152602001908152602001600020600e0160009054906101000a900460ff16600c811115612d5d57fe5b141515612d6957600080fd5b6008600083815260200190815260200160002060020160009054906101000a900473ffffffffffffffffffffffffffffffffffffffff168073ffffffffffffffffffffffffffffffffffffffff163373ffffffffffffffffffffffffffffffffffffffff16141515612dda57600080fd5b600460086000858152602001908152602001600020600e0160006101000a81548160ff0219169083600c811115612e0d57fe5b02179055507fc8ca2150e6e1849a10ef5aa4932060fa353bcacdffeb150c9e1890c6ab9403cc836040518082815260200191505060405180910390a1505050565b612e5733613e66565b565b6000806000612e666146cd565b600960008681526020019081526020016000206060604051908101604052908160008201548152602001600182015481526020016002820154815250509050806000015181602001518260400151935093509350509193909250565b600560009054906101000a900473ffffffffffffffffffffffffffffffffffffffff1673ffffffffffffffffffffffffffffffffffffffff163373ffffffffffffffffffffffffffffffffffffffff16141515612f1e57600080fd5b600073ffffffffffffffffffffffffffffffffffffffff166000809054906101000a900473ffffffffffffffffffffffffffffffffffffffff1673ffffffffffffffffffffffffffffffffffffffff167f5c486528ec3e3f0ea91181cff8116f02bfa350e03b8b6f12e00765adbb5af85c60405160405180910390a360008060006101000a81548173ffffffffffffffffffffffffffffffffffffffff021916908373ffffffffffffffffffffffffffffffffffffffff160217905550565b612fe633613210565b1515612ff157600080fd5b612ffa81613ec0565b50565b613006336136d5565b151561307a576040517f08c379a00000000000000000000000000000000000000000000000000000000081526004018080602001828103825260168152602001807f43616c6c6572206973206e6f742061206661726d65720000000000000000000081525060200191505060405180910390fd5b61308381613f1a565b50565b61308f33613f74565b565b61309a33612cef565b15156130a557600080fd5b806009600c8111156130b357fe5b60086000838152602001908152602001600020600e0160009054906101000a900460ff16600c8111156130e257fe5b1415156130ee57600080fd5b6008600083815260200190815260200160002060020160009054906101000a900473ffffffffffffffffffffffffffffffffffffffff168073ffffffffffffffffffffffffffffffffffffffff163373ffffffffffffffffffffffffffffffffffffffff1614151561315f57600080fd5b600a60086000858152602001908152602001600020600e0160006101000a81548160ff0219169083600c81111561319257fe5b02179055507f322f34e90f2269750b3e28178631d975cc678db36f21098fe548b7f755ce0bd0836040518082815260200191505060405180910390a1505050565b60006131e9826004613d6990919063ffffffff16565b9050919050565b6131f933612cef565b151561320457600080fd5b61320d81613fce565b50565b6000613226826002613d6990919063ffffffff16565b9050919050565b60008060009054906101000a900473ffffffffffffffffffffffffffffffffffffffff1673ffffffffffffffffffffffffffffffffffffffff163373ffffffffffffffffffffffffffffffffffffffff1614905090565b61328d336136d5565b1515613301576040517f08c379a00000000000000000000000000000000000000000000000000000000081526004018080602001828103825260168152602001807f43616c6c6572206973206e6f742061206661726d65720000000000000000000081525060200191505060405180910390fd5b806002600c81111561330f57fe5b60086000838152602001908152602001600020600e0160009054906101000a900460ff16600c81111561333e57fe5b14151561334a57600080fd5b6008600083815260200190815260200160002060030160009054906101000a900473ffffffffffffffffffffffffffffffffffffffff168073ffffffffffffffffffffffffffffffffffffffff163373ffffffffffffffffffffffffffffffffffffffff161415156133bb57600080fd5b600360086000858152602001908152602001600020600e0160006101000a81548160ff0219169083600c8111156133ee57fe5b02179055507fe6ae062d51064ae2a5a31a72fcb1bee1d343fdc6bddc1d3dfce658ece4f03212836040518082815260200191505060405180910390a1505050565b60065481565b61343e33613210565b151561344957600080fd5b806008600c81111561345757fe5b60086000838152602001908152602001600020600e0160009054906101000a900460ff16600c81111561348657fe5b14151561349257600080fd5b60086000838152602001908152602001600020600e0160019054906101000a900473ffffffffffffffffffffffffffffffffffffffff168073ffffffffffffffffffffffffffffffffffffffff163373ffffffffffffffffffffffffffffffffffffffff1614151561350357600080fd5b600960086000858152602001908152602001600020600e0160006101000a81548160ff0219169083600c81111561353657fe5b02179055507fc5c33776d405e5686e4386e1ef31a65cf6195e4f7ceb8808ab64d05b6ccbc2a6836040518082815260200191505060405180910390a1505050565b61358033613210565b151561358b57600080fd5b816004600c81111561359957fe5b60086000838152602001908152602001600020600e0160009054906101000a900460ff16600c8111156135c857fe5b1415156135d457600080fd5b6008600084815260200190815260200160002060020160009054906101000a900473ffffffffffffffffffffffffffffffffffffffff168073ffffffffffffffffffffffffffffffffffffffff163373ffffffffffffffffffffffffffffffffffffffff1614151561364557600080fd5b600560086000868152602001908152602001600020600e0160006101000a81548160ff0219169083600c81111561367857fe5b02179055508260086000868152602001908152602001600020600d01819055507f5725e53fd0efed5294b7db2af148f040264a63630b4deb0afbccf6e60830988a846040518082815260200191505060405180910390a150505050565b60006136eb826001613d6990919063ffffffff16565b9050919050565b6136fb33612cef565b151561370657600080fd5b81600a600c81111561371457fe5b60086000838152602001908152602001600020600e0160009054906101000a900460ff16600c81111561374357fe5b14151561374f57600080fd5b6008600084815260200190815260200160002060020160009054906101000a900473ffffffffffffffffffffffffffffffffffffffff168073ffffffffffffffffffffffffffffffffffffffff163373ffffffffffffffffffffffffffffffffffffffff161415156137c057600080fd5b600b60086000868152602001908152602001600020600e0160006101000a81548160ff0219169083600c8111156137f357fe5b02179055508260086000868152602001908152602001600020600c01819055507f59e7ad085805e2b02ad4b0f8033bd75e7ee4c8cd43f996267463585e35896252846040518082815260200191505060405180910390a150505050565b61385933613210565b151561386457600080fd5b806005600c81111561387257fe5b60086000838152602001908152602001600020600e0160009054906101000a900460ff16600c8111156138a157fe5b1415156138ad57600080fd5b6008600083815260200190815260200160002060020160009054906101000a900473ffffffffffffffffffffffffffffffffffffffff168073ffffffffffffffffffffffffffffffffffffffff163373ffffffffffffffffffffffffffffffffffffffff1614151561391e57600080fd5b600660086000858152602001908152602001600020600e0160006101000a81548160ff0219169083600c81111561395157fe5b02179055507fe66bb55f536a4cc96647dde6ff37b712c07348eaa88366931f491d93c0fcd981836040518082815260200191505060405180910390a1505050565b61399b33612cef565b15156139a657600080fd5b806007600c8111156139b457fe5b60086000838152602001908152602001600020600e0160009054906101000a900460ff16600c8111156139e357fe5b1415156139ef57600080fd5b60086000838152602001908152602001600020600c0154803410151515613a1557600080fd5b8233600060086000848152602001908152602001600020600c01549050600081340390508273ffffffffffffffffffffffffffffffffffffffff166108fc829081150290604051600060405180830381858888f19350505050158015613a7f573d6000803e3d6000fd5b506000613ac1600860008a8152602001908152602001600020600e0160019054906101000a900473ffffffffffffffffffffffffffffffffffffffff16613d05565b90508073ffffffffffffffffffffffffffffffffffffffff166108fc600860008b8152602001908152602001600020600c01549081150290604051600060405180830381858888f19350505050158015613b1f573d6000803e3d6000fd5b5033600860008a815260200190815260200160002060020160006101000a81548173ffffffffffffffffffffffffffffffffffffffff021916908373ffffffffffffffffffffffffffffffffffffffff16021790555033600860008a8152602001908152602001600020600f0160006101000a81548173ffffffffffffffffffffffffffffffffffffffff021916908373ffffffffffffffffffffffffffffffffffffffff16021790555060088060008a8152602001908152602001600020600e0160006101000a81548160ff0219169083600c811115613bfc57fe5b021790555043600960008a8152602001908152602001600020600101819055507faa7352d10146444c3afd9bd7fb0ae56b0a85e81139536bbec3f1f660fddd7be1886040518082815260200191505060405180910390a15050505050505050565b613c6633614028565b565b60008060009054906101000a900473ffffffffffffffffffffffffffffffffffffffff16905090565b600560009054906101000a900473ffffffffffffffffffffffffffffffffffffffff1673ffffffffffffffffffffffffffffffffffffffff163373ffffffffffffffffffffffffffffffffffffffff16141515613ced57600080fd5b613cf681614082565b50565b613d02816141e5565b50565b6000819050919050565b613d2381600461423f90919063ffffffff16565b8073ffffffffffffffffffffffffffffffffffffffff167f28b26e7a3d20aedbc5f8f2ebf7da671c0491723a2b78f47a097b0e46dee0714260405160405180910390a250565b60008073ffffffffffffffffffffffffffffffffffffffff168273ffffffffffffffffffffffffffffffffffffffff1614151515613e0f576040517f08c379a00000000000000000000000000000000000000000000000000000000081526004018080602001828103825260178152602001807f4163636f756e74206973206e6f7420766572696669656400000000000000000081525060200191505060405180910390fd5b8260000160008373ffffffffffffffffffffffffffffffffffffffff1673ffffffffffffffffffffffffffffffffffffffff16815260200190815260200160002060009054906101000a900460ff16905092915050565b613e7a8160026143c190919063ffffffff16565b8073ffffffffffffffffffffffffffffffffffffffff167f126174f6cf49c81cdb4a9214c6b8f037bef55b4ec31e4fc776cea2a1c8a88d5960405160405180910390a250565b613ed481600261423f90919063ffffffff16565b8073ffffffffffffffffffffffffffffffffffffffff167fddbf200aa634dc3fb81cfd68583dd1040d1c751d335e1d86b631bde3e977fea860405160405180910390a250565b613f2e81600161423f90919063ffffffff16565b8073ffffffffffffffffffffffffffffffffffffffff167f2e0ded4123377a3c2bc9a26f1717655a129e2f20752924d42e730ec89c83dbd060405160405180910390a250565b613f888160016143c190919063ffffffff16565b8073ffffffffffffffffffffffffffffffffffffffff167fa5e0f060af304ab17dd418c7927e3da3ae7868189bf387aee09ab179ccc572f260405160405180910390a250565b613fe281600361423f90919063ffffffff16565b8073ffffffffffffffffffffffffffffffffffffffff167f71ae26cad02663e3d92efd6ec56031a80d74a20c0ab4183faa8bf262261c9baa60405160405180910390a250565b61403c8160036143c190919063ffffffff16565b8073ffffffffffffffffffffffffffffffffffffffff167fdb7176e79cffef81cb01767dd0447a0b24bb72ca9778d4b245581086b2a7e6db60405160405180910390a250565b600073ffffffffffffffffffffffffffffffffffffffff168173ffffffffffffffffffffffffffffffffffffffff1614151515614127576040517f08c379a00000000000000000000000000000000000000000000000000000000081526004018080602001828103825260118152602001807f6e6f742076616c6964206164647265737300000000000000000000000000000081525060200191505060405180910390fd5b8073ffffffffffffffffffffffffffffffffffffffff166000809054906101000a900473ffffffffffffffffffffffffffffffffffffffff1673ffffffffffffffffffffffffffffffffffffffff167f5c486528ec3e3f0ea91181cff8116f02bfa350e03b8b6f12e00765adbb5af85c60405160405180910390a3806000806101000a81548173ffffffffffffffffffffffffffffffffffffffff021916908373ffffffffffffffffffffffffffffffffffffffff16021790555050565b6141f98160046143c190919063ffffffff16565b8073ffffffffffffffffffffffffffffffffffffffff167fe3f5ed5f263f1f01764a96edfc7d025f511ec5f7d180e8816908b78bcf74f09860405160405180910390a250565b600073ffffffffffffffffffffffffffffffffffffffff168173ffffffffffffffffffffffffffffffffffffffff16141515156142e4576040517f08c379a000000000000000000000000000000000000000000000000000000000815260040180806020018281038252600e8152602001807f766572696679206163636f756e7400000000000000000000000000000000000081525060200191505060405180910390fd5b6142ee8282613d69565b151515614363576040517f08c379a000000000000000000000000000000000000000000000000000000000815260040180806020018281038252601b8152602001807f766572696679206163636f756e74206861732074686520726f6c65000000000081525060200191505060405180910390fd5b60018260000160008373ffffffffffffffffffffffffffffffffffffffff1673ffffffffffffffffffffffffffffffffffffffff16815260200190815260200160002060006101000a81548160ff0219169083151502179055505050565b600073ffffffffffffffffffffffffffffffffffffffff168173ffffffffffffffffffffffffffffffffffffffff1614151515614466576040517f08c379a000000000000000000000000000000000000000000000000000000000815260040180806020018281038252600e8152602001807f766572696679206163636f756e7400000000000000000000000000000000000081525060200191505060405180910390fd5b6144708282613d69565b15156144e4576040517f08c379a000000000000000000000000000000000000000000000000000000000815260040180806020018281038252601b8152602001807f766572696679206163636f756e74206861732074686520726f6c65000000000081525060200191505060405180910390fd5b60008260000160008373ffffffffffffffffffffffffffffffffffffffff1673ffffffffffffffffffffffffffffffffffffffff16815260200190815260200160002060006101000a81548160ff0219169083151502179055505050565b610240604051908101604052806000815260200160008152602001600073ffffffffffffffffffffffffffffffffffffffff168152602001600073ffffffffffffffffffffffffffffffffffffffff168152602001600080191681526020016060815260200160608152602001606081526020016060815260200160008019168152602001606081526020016000815260200160008152602001600081526020016000600c8111156145f057fe5b8152602001600073ffffffffffffffffffffffffffffffffffffffff168152602001600073ffffffffffffffffffffffffffffffffffffffff168152602001600073ffffffffffffffffffffffffffffffffffffffff1681525090565b828054600181600116156101000203166002900490600052602060002090601f016020900481019282601f1061468e57805160ff19168380011785556146bc565b828001600101855582156146bc579182015b828111156146bb5782518255916020019190600101906146a0565b5b5090506146c991906146ef565b5090565b6060604051908101604052806000815260200160008152602001600081525090565b61471191905b8082111561470d5760008160009055506001016146f5565b5090565b9056fea165627a7a72305820717b3b4027f9892a2f4966da60c773e7730f8843d7528f05e8569f5bbb05fb430029",
  "source": "pragma solidity >=0.4.24;\n\n// inherited contracts\nimport './corsOwn/Ownable.sol';\nimport './roles/FarmerRole.sol';\nimport './roles/DistributorRole.sol';\nimport './roles/RetailerRole.sol';\nimport './roles/ConsumerRole.sol';\n\n\n// Define a contract 'Supplychain'\ncontract Supplychain is Ownable, FarmerRole, DistributorRole, RetailerRole, ConsumerRole {\n\n    // Define 'owner'\n    address owner;\n\n    // Define a variable called 'upc' for Universal Product Code (UPC)\n    uint public upc;\n\n    // Define a variable called 'sku' for Stock Keeping Unit (SKU)\n    uint public sku = 0;\n\n    // Define a public mapping 'items' that maps the UPC to an Item.\n    mapping (uint => Item) items;\n\n    // Define a public mapping 'itemsHistory' that maps the UPC to an array of TxHash,\n    // that track its journey through the supply chain -- to be sent from DApp.\n    mapping (uint => Txblocks) productHistory;\n\n    // Define enum 'State' with the following values:\n    enum State\n    {\n        ProduceByFarmer,         // 0\n        ForSaleByFarmer,         // 1\n        PurchasedByDistributor,  // 2\n        ShippedByFarmer,         // 3\n        ReceivedByDistributor,   // 4\n        ProcessedByDistributor,  // 5\n        PackageByDistributor,    // 6\n        ForSaleByDistributor,    // 7\n        PurchasedByRetailer,     // 8\n        ShippedByDistributor,    // 9\n        ReceivedByRetailer,      // 10\n        ForSaleByRetailer,       // 11\n        PurchasedByConsumer      // 12\n    }\n\n\n    State constant defaultState = State.ProduceByFarmer;\n\n    // Define a struct 'Item' with the following fields:\n    struct Item {\n        uint    sku;                    // Stock Keeping Unit (SKU)\n        uint    upc;                    // Universal Product Code (UPC), generated by the Farmer, goes on the package, can be verified by the Consumer\n        address ownerID;                // Metamask-Ethereum address of the current owner as the product moves through 8 stages\n        address farmerID;               // Metamask-Ethereum address of the Farmer // ADDED PAYABLE\n        bytes32 farmID;\n        string  farmName;\n        string  farmInformation;\n        string  farmLatitude;\n        string  farmLongitude;\n        bytes32  productId;\n        string  productNotes;\n        uint256 productDate;\n        uint    productPrice;\n        uint    productSliced;\n        State   itemState;              // Product State as represented in the enum above\n        address distributorID;\n        address retailerID;\n        address consumerID;\n    }\n\n    // Block number stuct\n    struct Txblocks {\n        uint FTD;\n        uint DTR;\n        uint RTC;\n    }\n\n\n    event ProduceByFarmer(uint upc);         //1\n    event ForSaleByFarmer(uint upc);         //2\n    event PurchasedByDistributor(uint upc);  //3\n    event ShippedByFarmer(uint upc);         //4\n    event ReceivedByDistributor(uint upc);   //5\n    event ProcessedByDistributor(uint upc);  //6\n    event PackagedByDistributor(uint upc);   //7\n    event ForSaleByDistributor(uint upc);    //8\n    event PurchasedByRetailer(uint upc);     //9\n    event ShippedByDistributor(uint upc);    //10\n    event ReceivedByRetailer(uint upc);      //11\n    event ForSaleByRetailer(uint upc);       //12\n    event PurchasedByConsumer(uint upc);     //13\n\n\n    // Define a modifer that checks to see if msg.sender == owner of the contract\n    modifier onlyOwner() {\n        require(msg.sender == owner);\n        _;\n    }\n\n    // Define a modifer that verifies the Caller\n    modifier verifyCaller (address _address) {\n        require(msg.sender == _address);\n        _;\n    }\n\n    // Define a modifier that checks if the paid amount is sufficient to cover the price\n    modifier paidEnough(uint _price) {\n        require(msg.value >= _price);\n        _;\n    }\n\n    // Define a modifier that checks the price and refunds the remaining balance\n    modifier checkValue(uint _upc, address payable addressToFund) {\n        uint _price = items[_upc].productPrice;\n        uint  amountToReturn = msg.value - _price;\n        addressToFund.transfer(amountToReturn);\n        _;\n    }\n\n    //Item State Modifiers\n    modifier producedByFarmer(uint _upc) {\n        require(items[_upc].itemState == State.ProduceByFarmer);\n        _;\n    }\n\n    modifier forSaleByFarmer(uint _upc) {\n        require(items[_upc].itemState == State.ForSaleByFarmer);\n        _;\n    }\n\n    modifier purchasedByDistributor(uint _upc) {\n        require(items[_upc].itemState == State.PurchasedByDistributor);\n        _;\n    }\n\n    modifier shippedByFarmer(uint _upc) {\n        require(items[_upc].itemState == State.ShippedByFarmer);\n        _;\n    }\n\n    modifier receivedByDistributor(uint _upc) {\n        require(items[_upc].itemState == State.ReceivedByDistributor);\n        _;\n    }\n\n    modifier processByDistributor(uint _upc) {\n        require(items[_upc].itemState == State.ProcessedByDistributor);\n        _;\n    }\n\n    modifier packagedByDistributor(uint _upc) {\n        require(items[_upc].itemState == State.PackageByDistributor);\n        _;\n    }\n\n    modifier forSaleByDistributor(uint _upc) {\n        require(items[_upc].itemState == State.ForSaleByDistributor);\n        _;\n    }\n\n\n    modifier shippedByDistributor(uint _upc) {\n        require(items[_upc].itemState == State.ShippedByDistributor);\n        _;\n    }\n\n    modifier purchasedByRetailer(uint _upc) {\n        require(items[_upc].itemState == State.PurchasedByRetailer);\n        _;\n    }\n\n    modifier receivedByRetailer(uint _upc) {\n        require(items[_upc].itemState == State.ReceivedByRetailer);\n        _;\n    }\n\n    modifier forSaleByRetailer(uint _upc) {\n        require(items[_upc].itemState == State.ForSaleByRetailer);\n        _;\n    }\n\n    modifier purchasedByConsumer(uint _upc) {\n        require(items[_upc].itemState == State.PurchasedByConsumer);\n        _;\n    }\n\n    // constructor setup owner sku upc\n    constructor() public payable {\n        owner = msg.sender;\n        sku = 1;\n        upc = 1;\n    }\n\n    // Define a function 'kill'\n    function kill() public {\n        if (msg.sender == owner) {\n            address payable ownerAddressPayable = _make_payable(owner);\n            selfdestruct(ownerAddressPayable);\n        }\n    }\n\n\n    // allows you to convert an address into a payable address\n    function _make_payable(address x) internal pure returns (address payable) {\n        return address(uint160(x));\n    }\n\n    /*\n    * 1st step in supplychain\n    */\n    function createProductByFarmer (\n        uint _upc,\n        uint _price,\n        string memory _productNotes,\n        string memory _originFarmName,\n        string memory _originFarmInformation,\n        string memory _originFarmLatitude,\n        string memory _originFarmLongitude\n    ) public onlyFarmer() // check address belongs to farmerRole\n    {\n        address distributorID; // Empty distributorID address\n        address retailerID; // Empty retailerID address\n        address consumerID; // Empty consumerID address\n        Item memory newProduce; // Create a new struct Item in memory\n        newProduce.sku = sku;  // Stock Keeping Unit (SKU)\n        newProduce.upc = _upc; // Universal Product Code (UPC), generated by the Farmer, goes on the package, can be verified by the Consumer\n        newProduce.ownerID = msg.sender;  // Metamask-Ethereum address of the current owner as the product moves through 8 stages\n        newProduce.farmerID = msg.sender; // Metamask-Ethereum address of the Farmer\n        newProduce.farmID = keccak256(abi.encodePacked(now, _originFarmName));\n        newProduce.farmName = _originFarmName;  // Farmer Name\n        newProduce.farmInformation = _originFarmInformation; // Farmer Information\n        newProduce.farmLatitude = _originFarmLatitude; // Farm Latitude\n        newProduce.farmLongitude = _originFarmLongitude;  // Farm Longitude\n        newProduce.productId = keccak256(abi.encodePacked(now, msg.sender));  // Product ID\n        newProduce.productNotes = _productNotes; // Product Notes\n        newProduce.productPrice = _price;  // Product Price\n        newProduce.productSliced = 0;\n        newProduce.productDate = now;\n        newProduce.itemState = defaultState; // Product State as represented in the enum above\n        newProduce.distributorID = distributorID; // Metamask-Ethereum address of the Distributor\n        newProduce.retailerID = retailerID; // Metamask-Ethereum address of the Retailer\n        newProduce.consumerID = consumerID; // Metamask-Ethereum address of the Consumer // ADDED payable\n        items[_upc] = newProduce; // Add newProduce to items struct by upc\n\n        uint placeholder; // Block number place holder\n        Txblocks memory txBlock; // create new txBlock struct\n        txBlock.FTD = placeholder; // assign placeholder values\n        txBlock.DTR = placeholder;\n        txBlock.RTC = placeholder;\n        productHistory[_upc] = txBlock; // add txBlock to itemsHistory mapping by upc\n\n        // Increment sku\n        sku = sku + 1;\n\n        // Emit the appropriate event\n        emit ProduceByFarmer(_upc);\n\n    }\n\n    /*\n    2nd step in supplychain\n    Allows farmer to sell saffron\n    */\n    function sellProductByFarmer(uint _upc, uint _price) public onlyFarmer() // check msg.sender belongs to farmerRole\n    producedByFarmer(_upc) // check items state has been produced\n    verifyCaller(items[_upc].ownerID) // check msg.sender is owner\n    {\n        items[_upc].itemState = State.ForSaleByFarmer;\n        items[_upc].productPrice = _price;\n        emit ForSaleByFarmer(_upc);\n    }\n\n    /*\n    3rd step in supplychain\n    Allows distributor to purchase saffron\n    */\n    function purchaseProductByDistributor(uint _upc) public payable onlyDistributor() // check msg.sender belongs to distributorRole\n    forSaleByFarmer(_upc) // check items state is for ForSaleByFarmer\n    paidEnough(items[_upc].productPrice) // check if distributor sent enough Ether for saffron\n    checkValue(_upc, msg.sender) // check if overpaid return remaining funds back to msg.sender\n    {\n        address payable ownerAddressPayable = _make_payable(items[_upc].farmerID); // make originFarmID payable\n        ownerAddressPayable.transfer(items[_upc].productPrice); // transfer funds from distributor to farmer\n        items[_upc].ownerID = msg.sender; // update owner\n        items[_upc].distributorID = msg.sender; // update distributor\n        items[_upc].itemState = State.PurchasedByDistributor; // update state\n        productHistory[_upc].FTD = block.number; // add block number\n        emit PurchasedByDistributor(_upc);\n    }\n\n    /*\n    4th step in supplychain\n    Allows farmer to ship saffron purchased by distributor\n    */\n    function shipProductByFarmer(uint _upc) public payable onlyFarmer() // check msg.sender belongs to FarmerRole\n    purchasedByDistributor(_upc)\n    verifyCaller(items[_upc].farmerID) // check msg.sender is originFarmID\n    {\n        items[_upc].itemState = State.ShippedByFarmer; // update state\n        emit ShippedByFarmer(_upc);\n    }\n\n    /*\n    5th step in supplychain\n    Allows distributor to receive saffron\n    */\n    function receiveProductByDistributor(uint _upc) public onlyDistributor() // check msg.sender belongs to DistributorRole\n    shippedByFarmer(_upc) verifyCaller(items[_upc].ownerID) // check msg.sender is owner\n    {\n        items[_upc].itemState = State.ReceivedByDistributor; // update state\n        emit ReceivedByDistributor(_upc);\n    }\n\n    /*\n    6th step in supplychain\n    Allows distributor to process saffron\n    */\n    function processProductByDistributor(uint _upc, uint slices) public  onlyDistributor() // check msg.sender belongs to DistributorRole\n    receivedByDistributor(_upc)  verifyCaller(items[_upc].ownerID) // check msg.sender is owner\n    {\n        items[_upc].itemState = State.ProcessedByDistributor; // update state\n        items[_upc].productSliced = slices;\n        emit ProcessedByDistributor(_upc);\n    }\n\n    /*\n    7th step in supplychain\n    Allows distributor to package saffron\n    */\n    function packageProductByDistributor(uint _upc) public onlyDistributor() // check msg.sender belongs to DistributorRole\n    processByDistributor(_upc) verifyCaller(items[_upc].ownerID) // check msg.sender is owner\n    {\n        items[_upc].itemState = State.PackageByDistributor;\n        emit PackagedByDistributor(_upc);\n    }\n\n    /*\n    8th step in supplychain\n    Allows distributor to sell saffron\n    */\n    function sellProductByDistributor(uint _upc, uint _price) public onlyDistributor() // check msg.sender belongs to DistributorRole\n    packagedByDistributor(_upc) verifyCaller(items[_upc].ownerID) // check msg.sender is owner\n    {\n        items[_upc].itemState = State.ForSaleByDistributor;\n        items[_upc].productPrice = _price;\n        emit ForSaleByDistributor(upc);\n    }\n\n    /*\n    9th step in supplychain\n    Allows retailer to purchase saffron\n    */\n    function purchaseProductByRetailer(uint _upc) public payable onlyRetailer() // check msg.sender belongs to RetailerRole\n    forSaleByDistributor(_upc) paidEnough(items[_upc].productPrice)\n    checkValue(_upc, msg.sender)\n    {\n        address payable ownerAddressPayable = _make_payable(items[_upc].distributorID);\n        ownerAddressPayable.transfer(items[_upc].productPrice);\n        items[_upc].ownerID = msg.sender;\n        items[_upc].retailerID = msg.sender;\n        items[_upc].itemState = State.PurchasedByRetailer;\n        productHistory[_upc].DTR = block.number;\n        emit PurchasedByRetailer(_upc);\n    }\n\n    /*\n    10th step in supplychain\n    Allows Distributor to ship Saffron\n    */\n    function shipProductByDistributor(uint _upc) public onlyDistributor() // check msg.sender belongs to DistributorRole\n    purchasedByRetailer(_upc) verifyCaller(items[_upc].distributorID) // check msg.sender is distributorID\n    {\n        items[_upc].itemState = State.ShippedByDistributor;\n        emit ShippedByDistributor(_upc);\n    }\n\n    /*\n    11th step in supplychain\n    */\n    function receiveProductByRetailer(uint _upc) public onlyRetailer() // check msg.sender belongs to RetailerRole\n    shippedByDistributor(_upc) verifyCaller(items[_upc].ownerID) // check msg.sender is ownerID\n    {\n        items[_upc].itemState = State.ReceivedByRetailer;\n        emit ReceivedByRetailer(_upc);\n    }\n\n    /*\n    12th step in supplychain\n    */\n    function sellProductByRetailer(uint _upc, uint _price) public onlyRetailer()  // check msg.sender belongs to RetailerRole $\n    receivedByRetailer(_upc) verifyCaller(items[_upc].ownerID) // check msg.sender is ownerID\n    {\n        items[_upc].itemState = State.ForSaleByRetailer;\n        items[_upc].productPrice = _price;\n        emit ForSaleByRetailer(_upc);\n    }\n\n    /*\n    13th step in supplychain\n    */\n    function purchaseProductByConsumer(uint _upc) public payable onlyConsumer()  // check msg.sender belongs to ConsumerRole\n    forSaleByRetailer(_upc)  paidEnough(items[_upc].productPrice) checkValue(_upc, msg.sender) {\n        items[_upc].consumerID = msg.sender;\n        address payable ownerAddressPayable = _make_payable(items[_upc].retailerID);\n        ownerAddressPayable.transfer(items[_upc].productPrice);\n        items[_upc].ownerID = msg.sender;\n        items[_upc].consumerID = msg.sender;\n        items[_upc].itemState = State.PurchasedByConsumer;\n        productHistory[_upc].RTC = block.number;\n        emit PurchasedByConsumer(_upc);\n    }\n\n    // Define a function 'fetchItemBufferOne' that fetches the data\n    function getItemBufferOne(uint _upc) public view returns\n    (\n        uint    itemSKU,\n        uint    itemUPC,\n        address ownerID,\n        address farmerID,\n        bytes32 farmId,\n        string memory  farmName,\n        string memory farmInformation,\n        string memory farmLatitude,\n        string memory farmLongitude,\n        uint productDate,\n        uint productSliced\n    )\n    {\n        // Assign values to the 8 parameters\n        Item memory item = items[_upc];\n        return (\n            item.sku,\n            item.upc,\n            item.ownerID,\n            item.farmerID,\n            item.farmID,\n            item.farmName,\n            item.farmInformation,\n            item.farmLatitude,\n            item.farmLongitude,\n            item.productDate,\n            productSliced\n        );\n    }\n\n    // Define a function 'fetchItemBufferTwo' that fetches the data\n    function getItemBufferTwo(uint _upc) public view returns\n    (\n        uint    itemSKU,\n        uint    itemUPC,\n        bytes32    productId,\n        string  memory productNotes,\n        uint    productPrice,\n        uint256 productDate,\n        State   itemState,\n        address distributorID,\n        address retailerID,\n        address consumerID\n    )\n    {\n        // Assign values to the 9 parameters\n        Item memory item = items[_upc];\n        return\n        (\n            item.sku,\n            item.upc,\n            item.productId,\n            item.productNotes,\n            item.productPrice,\n            item.productDate,\n            item.itemState,\n            item.distributorID,\n            item.retailerID,\n            item.consumerID\n        );\n\n    }\n\n    // Define a function 'fetchItemHistory' that fetaches the data\n    function fetchProductHistory(uint _upc) public view returns\n    (\n        uint blockFarmerToDistributor,\n        uint blockDistributorToRetailer,\n        uint blockRetailerToConsumer\n    )\n    {\n        // Assign value to the parameters\n        Txblocks memory txblock = productHistory[_upc];\n        return\n        (\n            txblock.FTD,\n            txblock.DTR,\n            txblock.RTC\n        );\n\n    }\n\n}\n",
  "sourcePath": "/home/elmas/saffron-for-supplychain/src/contracts/Supplychain.sol",
  "compiler": {
    "name": "solc",
    "version": "0.5.0+commit.1d4f565a.Emscripten.clang"
  },
  "schemaVersion": "3.0.8",
  "updatedAt": "2020-10-11T00:02:31.823Z",
  "devdoc": {
    "methods": {}
  },
  "userdoc": {
    "methods": {
      "isOwner()": {
        "notice": "Check if the calling address is the owner of the contract"
      },
      "ownerLookup()": {
        "notice": "Look up the address of the owner"
      },
      "renounceOwnership()": {
        "notice": "Define a function to renounce ownerhip"
      },
      "transferOwnership(address)": {
        "notice": "Define a public function to transfer ownership"
      }
    }
  }
}